{
    "txid": "cf1e69e536bd05ed99809f6f4d04453afd8ad5e917e847c5e55f32d72a8fcbfd",
    "hash": "cf1e69e536bd05ed99809f6f4d04453afd8ad5e917e847c5e55f32d72a8fcbfd",
    "version": 2,
    "size": 201,
    "vsize": 201,
    "weight": 804,
    "locktime": 0,
    "vin": [
        {
            "txid": "5897de6bd6027a475eadd57019d4e6872c396d0716c4875a5f1a6fcfdf385c1f",
            "vout": 0,
            "scriptSig": {
                "asm": "",
                "hex": ""
            },
            "sequence": 4294967295
        },
        {
            "txid": "bf829c6bcf84579331337659d31f89dfd138f7f7785802d5501c92333145ca7c",
            "vout": 18,
            "scriptSig": {
                "asm": "",
                "hex": ""
            },
            "sequence": 4294967295
        },
        {
            "txid": "22a6f904655d53ae2ff70e701a0bbd90aa3975c0f40bfc6cc996a9049e31cdfc",
            "vout": 1,
            "scriptSig": {
                "asm": "",
                "hex": ""
            },
            "sequence": 4294967295
        }
    ],
    "vout": [
        {
            "value": 0.18000000,
            "n": 0,
            "scriptPubKey": {
                "asm": "OP_DUP OP_HASH160 a2516e770582864a6a56ed21a102044e388c62e3 OP_EQUALVERIFY OP_CHECKSIG",
                "hex": "76a914a2516e770582864a6a56ed21a102044e388c62e388ac",
                "reqSigs": 1,
                "type": "pubkeyhash",
                "addresses": [
                    "YeAJpWNZdLBDx7JuVLLmY16h4SD9irG1oJ"
                ]
            }
        },
        {
            "value": 4.00000000,
            "n": 1,
            "scriptPubKey": {
                "asm": "OP_DUP OP_HASH160 9f69a2899dfd534eddeb8ec7d533f465f063dc22 OP_EQUALVERIFY OP_CHECKSIG",
                "hex": "76a9149f69a2899dfd534eddeb8ec7d533f465f063dc2288ac",
                "reqSigs": 1,
                "type": "pubkeyhash",
                "addresses": [
                    "YdtwncZwWNX7C2r3YSDcu4T5FgzxXc4TdJ"
                ]
            }
        }
    ],
    "hex": "02000000031f5c38dfcf6f1a5f5a87c416076d392c87e6d41970d5ad5e477a02d66bde97580000000000ffffffff7cca453133921c50d5025878f7f738d1df891fd359763331935784cf6b9c82bf1200000000fffffffffccd319e04a996c96cfc0bf4c07539aa90bd0b1a700ef72fae535d6504f9a6220100000000ffffffff0280a81201000000001976a914a2516e770582864a6a56ed21a102044e388c62e388ac0084d717000000001976a9149f69a2899dfd534eddeb8ec7d533f465f063dc2288ac00000000"
}
